AL10M7Y10WMBENNET    TERESA       1008200107550000    1008201812550000
AL10D8Y20DSHARRISON  TYLER        1008201005000000    1008201809200000
AL10D6N30DSJOHNSON   KANDIE       1210201203570000    1210201805570000
AL10OY9T4OWPETERS    CARL         0308201403780000    0308201804780000
AL10O8N50OWMASTERS   MARCUS       0522201203380000    0522201805380000
AL10W9M60OWGOMEZ     SELENA       0629201003450000    0629201806450000
AL10W9M70WWJANSEN    JACOB        0806201603280000    0806201803580000
AL10W3L80WWHARLEY    STEPHEN      1109201703560000    1109201803760000
AL10W3D90WWYOUNG     EDWARD       1008201003790000    1008201805790000
AL10W3100WWSANTIAGO  SHAWN        0712201303580000    0712201804580000
AL10E4110WSCAMERON   HALEY        0322201106350000    0322201807350000
AL10E8120WSMICHAELS  SOPHIA       0912201205980000    0912201807980000